:100000000C9434000C9449000C9449000C94490061
:100010000C9449000C9449000C9449000C9449003C
:100020000C9449000C9449000C9449000C9449002C
:100030000C9449000C9449000C9449000C9449001C
:100040000C9449000C9449000C9449000C9449000C
:100050000C9449000C9449000C9449000C944900FC
:100060000C9449000C94490011241FBECFEFD8E036
:10007000DEBFCDBF11E0A0E0B1E0E6E7FAE002C0EC
:1000800005900D92AA33B107D9F70E9467010C942D
:1000900039050C94000085B1826085B985E08A95A8
:1000A000F1F7000085B18D7F85B98FE99FE0019759
:1000B000F1F700C000000895CF93C82F85B181608B
:1000C00085B980910001883021F4CBB90E944B00A2
:1000D0000CC08C2F807F8BB90E944B0020E1C29F07
:1000E000C00111248BB90E944B00CF910895CF938A
:1000F000C82F85B18E7F85B980910001883021F4A9
:10010000CBB90E944B000CC08C2F807F8BB90E9412
:100110004B0020E1C29FC00111248BB90E944B000B
:10012000CF91089581E00E9477008FE39FE10197CE
:10013000F1F700C0000008952FEF80E792E0215012
:1001400080409040E1F700C00000809100018830BD
:1001500021F48AB18FEF8AB903C08AB1806F8AB95E
:1001600084B1836084B980910001883021F488E3F0
:100170000E94770006C082E00E94770088E20E9419
:1001800077008CE00E9477000E94920086E00E9437
:10019000770008950F931F93CF938C01C0E003C0A5
:1001A0000E945C00CF5FF801EC0FF11D808181118E
:1001B000F7CFCF911F910F9108956F70817090E4E8
:1001C000899F600D1124862F80580E947700089522
:1001D000ACE7B0E09C9190649C93EAE7F0E09081FA
:1001E00097609083908190689083908190629083D3
:1001F0009C912C91907E892B822B8C9380818064A2
:100200008083089580917A0084FFFCCF80917800EC
:1002100090917900089585B5856085BD089588B170
:10022000816088B985E38A95F1F7000088B18E7FF7
:1002300088B916BC03C086B58B3F68F5319BFBCFF0
:1002400016BC05C086B58B3F10F016BC02C03199B4
:10025000F9CF66B570E0762F6627770F770F072EF8
:10026000000C880B990B0E94E20320E034E244E783
:1002700059E40E94730420E034E244E75BE40E9406
:100280003F0320E030E048E652E40E943F030E9432
:10029000B103862F08958FEF0895E0E8F0E08081A4
:1002A00082608083A1E8B0E08C9188618C938C910E
:1002B00082608C9380E49CE9909387008093860011
:1002C00080818062808384B1846084B90895CF93F3
:1002D000DF93CDB7DEB7C154D1090FB6F894DEBFB6
:1002E0000FBECDBF0E94BA0287B1816087B987B1C6
:1002F0008D7F87B90E94BA020E940B0188E08AB9FB
:100300001BB80E940F012FEF33ED90E321503040D6
:100310009040E1F700C00000883098F718E01BB962
:10032000EFEFF7EA21E6E150F0402040E1F700C0AE
:10033000000082E00E94E80014B915B80E949C00F9
:1003400081E091E00E94CA003FEF87EA91E63150D8
:1003500080409040E1F700C000000E9492008AE0D7
:1003600091E00E94CA0060E081E00E94DD0088E127
:1003700091E00E94CA00EFEFF7EA21E6E150F04079
:100380002040E1F700C000000E9492000E944D0151
:100390000E940201BC01990F880B990B0E94E20395
:1003A00020E030E040EA50E40E94730420E030ECAA
:1003B0004FE754E40E943F0320E030E040E05FE379
:1003C0000E94D20220E030E048EC52E40E94730424
:1003D0006B017C018E010F5F1F4F81E4F8011192C8
:1003E0008A95E9F788E291E00E94CA006CE080E01B
:1003F0000E94DD00C701B6010E94B103DC01CB0100
:100400004AE0B8010E9404050E94CA0086E391E018
:100410000E94CA00FFEF21EE34E0F150204030404E
:10042000E1F700C0000020E030E04CE052E4C701FA
:10043000B6010E946E048823ECF0EAE8F0E084E163
:1004400095E0918380838FEF93ED20E3815090407E
:100450002040E1F700C000008CE394E191838083A9
:100460003FEF83ED90E3315080409040E1F700C0D2
:10047000000074C020E030E040EF51E4C701B60155
:100480000E946E048823ECF0EAE8F0E084E195E055
:10049000918380832FEF37E98AE3215030408040F9
:1004A000E1F700C000008CE394E1918380839FEF2B
:1004B000E7E9FAE39150E040F040E1F700C00000C6
:1004C0004DC020E030E048EC51E4C701B6010E9485
:1004D0006E048823ECF0EAE8F0E084E195E0918393
:1004E00080832FEF3BE584E4215030408040E1F7EA
:1004F00000C000008CE394E1918380839FEFEBE5E3
:10050000F4E49150E040F040E1F700C0000026C064
:1005100020E030E040EA51E4C701B6010E946E04D9
:100520008823E4F0EAE8F0E084E195E091838083B9
:100530002FEF3FE18EE4215030408040E1F700C0D2
:1005400000008CE394E1918380839FEFEFE1FEE470
:100550009150E040F040E1F700C000002FEF33ED94
:1005600080E3215030408040E1F700C000000E944D
:1005700092000ECFE0ECF0E08081826080831092E8
:10058000C5008FEC8093C400E2ECF0E080818660CF
:100590008083E1ECF0E080818061808380818860ED
:1005A000808308955058BB27AA270E94EA020C9422
:1005B00034040E94260438F00E942D0420F039F4FF
:1005C0009F3F19F426F40C9423040EF4E095E7FB06
:1005D0000C941D04E92F0E94450458F3BA176207D2
:1005E00073078407950720F079F4A6F50C94670447
:1005F0000EF4E0950B2EBA2FA02D0B01B90190013E
:100600000C01CA01A0011124FF27591B99F0593F81
:1006100050F4503E68F11A16F040A22F232F342FC9
:100620004427585FF3CF469537952795A795F04017
:100630005395C9F77EF41F16BA0B620B730B840B2C
:10064000BAF09150A1F0FF0FBB1F661F771F881FE4
:10065000C2F70EC0BA0F621F731F841F48F487953C
:1006600077956795B795F7959E3F08F0B0CF93952E
:10067000880F08F09927EE0F9795879508950E94A7
:1006800053030C9434040E942D0458F00E94260455
:1006900040F029F45F3F29F00C941D0451110C9493
:1006A00068040C9423040E94450468F39923B1F371
:1006B000552391F3951B550BBB27AA276217730788
:1006C000840738F09F5F5F4F220F331F441FAA1F1C
:1006D000A9F335D00E2E3AF0E0E832D091505040D8
:1006E000E695001CCAF72BD0FE2F29D0660F771F86
:1006F000881FBB1F261737074807AB07B0E809F06C
:10070000BB0B802DBF01FF2793585F4F3AF09E3FF0
:10071000510578F00C941D040C9468045F3FE4F3D9
:10072000983ED4F3869577956795B795F7959F5F33
:10073000C9F7880F911D9695879597F90895E1E07F
:10074000660F771F881FBB1F621773078407BA07DE
:1007500020F0621B730B840BBA0BEE1F88F7E09539
:1007600008950E944D0488F09F5798F0B92F99275B
:10077000B751B0F0E1F0660F771F881F991F1AF08C
:10078000BA95C9F714C0B13091F00E946704B1E086
:1007900008950C946704672F782F8827B85F39F085
:1007A000B93FCCF3869577956795B395D9F73EF425
:1007B00090958095709561957F4F8F4F9F4F0895CD
:1007C000E89409C097FB3EF49095809570956195EB
:1007D0007F4F8F4F9F4F9923A9F0F92F96E9BB27A1
:1007E0009395F695879577956795B795F111F8CF1D
:1007F000FAF4BB0F11F460FF1BC06F5F7F4F8F4F88
:100800009F4F16C0882311F096E911C0772321F07D
:100810009EE8872F762F05C0662371F096E8862F15
:1008200070E060E02AF09A95660F771F881FDAF76C
:10083000880F9695879597F9089597F99F6780E8AF
:1008400070E060E008959FEF80EC089500240A9422
:100850001616170618060906089500240A9412169B
:100860001306140605060895092E0394000C11F4CE
:10087000882352F0BB0F40F4BF2B11F460FF04C07B
:100880006F5F7F4F8F4F9F4F089557FD9058440FD4
:10089000551F59F05F3F71F04795880F97FB991FDF
:1008A00061F09F3F79F0879508951216130614069C
:1008B000551FF2CF4695F1DF08C016161706180629
:1008C000991FF1CF86957105610508940895E89404
:1008D000BB2766277727CB0197F908950E94E0048C
:1008E00008F48FEF08950E9486040C9434040E944B
:1008F000260438F00E942D0420F0952311F00C946A
:100900001D040C94230411240C9468040E944504D3
:1009100070F3959FC1F3950F50E0551F629FF00152
:10092000729FBB27F00DB11D639FAA27F00DB11D6B
:10093000AA1F649F6627B00DA11D661F829F2227F4
:10094000B00DA11D621F739FB00DA11D621F839F7B
:10095000A00D611D221F749F3327A00D611D231F51
:10096000849F600D211D822F762F6A2F11249F579F
:1009700050409AF0F1F088234AF0EE0FFF1FBB1FA2
:10098000661F771F881F91505040A9F79E3F510561
:1009900080F00C941D040C9468045F3FE4F3983ECF
:1009A000D4F3869577956795B795F795E7959F5F0B
:1009B000C1F7FE2B880F911D9695879597F908959D
:1009C000990F0008550FAA0BE0E8FEEF1616170660
:1009D000E807F907C0F012161306E407F50798F0C8
:1009E000621B730B840B950B39F40A2661F0232BE1
:1009F000242B252B21F408950A2609F4A140A6955D
:100A00008FEF811D811D0895BB274A3031F4992352
:100A100022F4BDE2909581959F4F0C941005BB2761
:100A2000FB015527AA27880F991FAA1FA41710F0AA
:100A3000A41B83955051B9F7A05DAA3308F0A95DB6
:100A4000A193009779F7B111B1931192CB010C9456
:100A50002905DC01FC01672F71917723E1F73297BB
:100A600004C07C916D9370836291AE17BF07C8F389
:060A70000895F894FFCF89
:100A76000457656C636F6D6521005468616E6B2069
:100A8600796F7520666F7200796F75722068617272
:100A96006420776F726B2100496E742E2074656D29
:0A0AA600702E203A2000604300008B
:00000001FF
